:020000040000FA
:1000000020D2FF1F99020000C9020000CB020000AD
:10001000CD020000CF020000D1020000000000006D
:10002000000000000000000000000000D3020000FB
:10003000D502000000000000D7020000D902000035
:10004000DD210000ED210000FD2100000D22000057
:100050001D2200002D2200003D2200004D22000044
:100060005D2200006D2200007D2200008D22000034
:100070009D220000AD220000BD220000CD22000024
:10008000DD220000ED220000FD2200000D23000013
:100090001D2300002D2300003D2300004D23000000
:1000A0005D2300006D2300007D2300008D230000F0
:1000B0009D230000AD230000BD230000CD230000E0
:1000C000DD230000ED230000FD2300000D240000CF
:1000D0001D2400002D2400003D2400004D240000BC
:1000E0005D2400006D2400007D2400008D240000AC
:1000F0009D240000AD240000BD240000CD2400009C
:10010000DD240000ED240000FD2400000D2500008A
:100110001D2500002D2500003D2500004D25000077
:100120005D2500006D2500007D2500008D25000067
:100130009D250000AD250000BD250000CD25000057
:10014000DD250000ED250000FD2500000D26000046
:100150001D2600002D2600003D2600004D26000033
:100160005D2600006D2600007D2600008D26000023
:100170009D260000AD260000BD260000CD26000013
:10018000DD260000ED260000FD2600000D27000002
:100190001D2700002D2700003D2700004D270000EF
:1001A0005D2700006D2700007D2700008D270000DF
:1001B0009D270000AD270000BD270000CD270000CF
:1001C000DD270000ED270000FD2700000D280000BE
:1001D0001D2800002D2800003D2800004D280000AB
:1001E0005D2800006D2800007D2800008D2800009B
:1001F0009D280000AD280000BD280000CD2800008B
:10020000DD280000ED280000FD2800000D29000079
:100210001D2900002D2900003D2900004D29000066
:100220005D2900006D2900007D2900008D29000056
:100230009D290000AD290000BD290000CD29000046
:10024000DB020000DB020000DB020000DB0200003A
:10025000DB020000DB020000DB020000DB0200002A
:10026000DB020000DB020000DB020000DB0200001A
:10027000DB020000DB020000DB020000DB0200000A
:10028000DFF810D000F046FA004800477150000037
:10029000AFF3008020D2FF1F10484FF077010160BC
:1002A0000F484FF0770101600E484FF4885101600C
:1002B0000A484FF07601016009484FF0760101606D
:1002C0000948804709480047FEE7FEE7FEE7FEE7EA
:1002D000FEE7FEE7FEE7FEE7FEE7FEE7040805406F
:1002E0000C0805400008054029410000810200007B
:1002F0002DE9F05F0546002092469B46884606465B
:10030000814640241BE0284641464746224600F0ED
:100310005DF953465A46C01A914110D3114618460A
:10032000224600F044F92D1A67EB01084F46224699
:100330000120002100F03BF917EB00094E41201E7F
:10034000A4F10104DFDC484631462A464346BDE8B5
:10035000F09F0EB540F2334102910021CDE900112A
:100360000A460B4600F088F903B000BD0EB540F216
:10037000334202920022CDE90022134600F07CF9BC
:1003800003B000BD01F0004330B421F0004150EA59
:10039000010206D00A0DA2F56072C1F31301002A12
:1003A00002DC30BC00207047440F44EAC104C100A5
:1003B000E01830BC00EBC25000F018B9002801DB97
:1003C000C0F10040002901DBC1F1004181427047CA
:1003D00030B50B46014600202022012409E021FA15
:1003E00002F59D4205D303FA02F5491B04FA02F512
:1003F0002844151EA2F10102F1DC30BD7047000057
:10040000BFFFDFFFFFFEFFFFFFFFFFFFFFFFFFFF5D
:10041000FFFFFFFFFFFFFFFFFFFFFFFFFFFFFFFFEC
:10042000F0B480EA0102D40F4200B2EB410F02D2D5
:100430000246084611464A0042D0C30DDDB2C1F360
:10044000C752AD1A202D35DAC1F3160141F400026E
:1004500004B15242C5F1200602FA06F12A411044C5
:10046000B3EBD05F23D0C4B1012DA0EBC35009DCA6
:10047000F0BC4FF0004202EAC352DBB200F50000CC
:1004800000F0BDB8400000F1807000EBC350A0F157
:10049000807040EAD170490009E0490841EAC07122
:1004A000A0EBC35000F50000400800EBC350F0BCC7
:1004B00000F09CB86142012202EB4101001BF6E70B
:1004C000F0BC704781F00041AAE780F00040A7E748
:1004D0002DE9F04D81EA030404F0004B21F00045C2
:1004E00014464FF0000A23F0004150EA050220D0E4
:1004F00054EA01021DD0C5F30A570246C5F313039F
:10050000C1F31300C1F30A5640F4801543F480137D
:10051000A7EB0608101BD64608F2FD3873EB050062
:1005200002D308F1010801E092185B41B8F1000F15
:1005300003DA00200146BDE8F08D00204FF4801161
:10054000064684460EE0171B73EB050705D3121B06
:1005500063EB050306434CEA010C49084FEA3000FF
:1005600092185B4150EA0107EDD152EA030012D024
:1005700082EA040083EA0501084305D0101BAB4161
:1005800006D20122002306E000224FF0004302E0E1
:100590006FF0010253101AEB06004CEB085110EB00
:1005A0000A0041EB0B01BDE8F04D00F056B8202ADF
:1005B00004DB203A00FA02F1002070479140C2F1BA
:1005C000200320FA03F3194390407047202A04DBEC
:1005D000203A21FA02F00021704721FA02F3D040BC
:1005E000C2F1200291400843194670470029A8BF74
:1005F0007047401C490008BF20F00100704710B44C
:10060000B0FA80FC00FA0CF050EA010404BF10BC00
:10061000704749B1CCF1200421FA04F411FA0CF12D
:1006200018BF012121430843A3EB0C01CB1D4FEA66
:1006300000614FEA102042BF002010BC704700EB61
:10064000C35010440029A4BF10BC7047401C49008F
:1006500008BF20F0010010BC704710B5141E73F1E4
:10066000000408DA401C41F1000192185B411A4372
:1006700001D120F0010010BD2DE9F04D92469B46BE
:1006800011B1B1FA81F202E0B0FA80F22032904664
:10069000FFF78DFF04460F4640EA0A0041EA0B01CE
:1006A00053465A46084313D0114653EA010019D065
:1006B000C8F140025046FFF789FF05460E465046F6
:1006C00059464246FFF773FF084305D0012004E076
:1006D00020463946BDE8F08D0020054346EAE07625
:1006E0002C4337430A986305E40AA0EB0800002274
:1006F000FD0A44EA47540A3002D500200146E9E7E2
:10070000010510196941DDE9084500196941BDE895
:10071000F04DA2E7064C074D06E0E06840F001030B
:1007200094E8070098471034AC42F6D3FFF7ACFDCD
:10073000FC5000001C51000000B585B0184800783E
:1007400001282BD100F0C4F900201549087004A934
:1007500002F0E8FBF8B903A9002002F04BFCB0B9A5
:100760009DF80E009DF80D109DF80C20CDE900219C
:1007700002909DF812309DF811209DF8101009A0EC
:1007800004F076FA9DF8130002F00CFB06E00EA0D0
:1007900004F06EFA02E011A004F06AFA05B000BDA0
:1007A0001880FF1F3230253032642F253032642FFD
:1007B0002530326420253032643A253032643A25BF
:1007C00030326420000000004765742074696D6554
:1007D000206661696C6564210D0A0000476574201C
:1007E00064617465206661696C6564210D0A0000AE
:1007F0007FB55220ADF800000320ADF80200334869
:100800000190BDF9020001F0CDFC684601F056FCF4
:1008100004460CB100BFFEE7BDF90200002807DB6B
:1008200000F01F0101228A402949430941F8232091
:1008300000BFBDF902000F21002804DB0A07130ED8
:10084000244A135406E00A07150E234A00F00F034A
:100850001B1FD55400BFBDF9020000280DDB00BFEF
:1008600000BF00F01F02012191404209920002F1F5
:10087000E022C2F8001100BF00BF00BF02F04AFB37
:1008800000BB02F047FA10F1080F03D113A004F0E7
:10089000EFF917E002A802F01FFF00208DF8080012
:1008A00008208DF8090002208DF80A0002A802F045
:1008B00019FC02F0C9F90121202002F0B7FC012047
:1008C00002F0FEF9002004B070BD0000B932000053
:1008D00080E200E000E400E018ED00E0526573659E
:1008E0007420525443206661696C6564210D0A00CE
:1008F00000B585B03649374800F0EBFB03A800F09F
:10090000BFFB0020049001A800F0DCFD00208DF862
:1009100004008DF8060030208DF8050005208DF8C4
:10092000080001A800F02AFD049820F01F000490A0
:10093000049820F0800004903121049861F3102085
:100940000490049820F0704000F1805004900498C6
:1009500020F0706000F180700490049820F4700022
:1009600000F58010049000208DF80C0003A800F022
:1009700033FA00BF202000F019F90128FAD1002233
:100980001146042002F0B8FE012211460B2002F0AD
:10099000B3FE502000F08EFF4FF4404001F0F2FA19
:1009A00002F0FCF8052000F09EFB002000F030F97A
:1009B000684600F075FC00208DF800008DF80100FD
:1009C0008DF80200684600F0FFFB05B000BD000096
:1009D000102211007777770700B58BB001A801F0DE
:1009E00019FB01AA2021012001F020F94FF48050C9
:1009F000ADF812004020ADF80E0001AA2021012020
:100A000001F014F901AA1021032001F00FF908A840
:100A100001F0A0F8802008901020099000200A9092
:100A200008A9202001F012F808A9102001F00EF802
:100A30000520ADF81800ADF81A001548079006A873
:100A400001F03CFBBDF91A0004F022F9BDF91A00CF
:100A50000F2104F03DF9BDF91A0004F027F9042034
:100A6000ADF81800ADF81A000A48079006A801F082
:100A700025FBBDF91A0004F00BF9BDF91A000F218E
:100A800004F026F9BDF91A0004F010F90BB000BD0E
:100A9000871B0000691B000010B586B001A801F09B
:100AA000B9FA0220ADF8060000240BE0074A02EB79
:100AB00084025188054A12F8240001AA01F0B6F810
:100AC000601CC4B2022CF1D306B010BDD45000009B
:100AD00070B5054600240FE045FA04F000F001006F
:100AE00040B1074A02EB84025188054A12F82400FB
:100AF00001F0A0FA601CC4B2022CEDD370BD00005E
:100B0000D4500000F0B58DB007460D466FF00206D8
:100B1000002D36D020220121022001F0C7F9012149
:100B2000080601F03FF801A803F0A8FF4FF40040C9
:100B30000890002201A9144803F0A4FE00241DE03F
:100B40002146114803F056FE0CAA29460E4803F030
:100B5000C1FD06467EB90D480C99FFF72FFC0AD857
:100B60000B490C98FFF72AFC05D8012208210648FA
:100B700003F0B4FC04E04FF0FF36641C032CDFD913
:100B800000BF30460DB0F0BD00D00140CDCCCCBC94
:100B9000CDCCCC3C08B50021009102E00099491C65
:100BA000009100998142F9D308BD000010B50446B8
:100BB00000BF24B144F06900692800D104E040F28C
:100BC0009A5106A000F00EFE00BF104800782040A9
:100BD00008B1012010BD0020FCE700002E2E5C2E85
:100BE0002E5C647269766572735C686333325F6C25
:100BF0006C5F6472697665725C7372635C686333A0
:100C0000325F6C6C5F636C6B2E6300003C40054090
:100C100070B50446002500BF0CB1012C00D104E0E2
:100C20004FF43C7114A000F0DDFD00BF00BF1E4872
:100C3000008800F0010000B104E040F2F1210EA0B4
:100C400000F0D0FD00BF6CB91848007800F0070034
:100C5000022802D16FF005050BE00120124929316D
:100C6000087006E000201049293108704815FFF788
:100C700091FF284670BD00002E2E5C2E2E5C647203
:100C800069766572735C686333325F6C6C5F647243
:100C9000697665725C7372635C686333325F6C6C37
:100CA0005F636C6B2E630000FE43054026400540E9
:100CB00010B5044600BF0848008800F0010000B1EC
:100CC00004E04FF4597105A000F08CFD00BF02490B
:100CD0002B310C7010BD0000FE4305402E2E5C2E03
:100CE0002E5C647269766572735C686333325F6C24
:100CF0006C5F6472697665725C7372635C6863339F
:100D0000325F6C6C5F636C6B2E63000070B50446E1
:100D1000002500BF0CB1012C00D104E04FF49E610E
:100D20001FA000F05FFD00BF00BF2948008800F051
:100D3000010000B104E040F2F14119A000F052FDC1
:100D400000BF64B92348007800F00700052801D1EE
:100D5000C54322E001201F49091D08701DE01D4800
:100D6000DA300068C0F3C01030B94FF48051082069
:100D700000F0C1F9054605E04FF48051012000F074
:100D8000BAF905464DB900201249091D08704FF403
:100D90008051202000F0AFF90546284670BD0000C4
:100DA0002E2E5C2E2E5C647269766572735C6863AD
:100DB00033325F6C6C5F6472697665725C73726308
:100DC0005C686333325F6C6C5F636C6B2E63000036
:100DD000FE430540264005402DE9F041044614B984
:100DE0006FF002061FE100BF2079C0F3C01018B1F8
:100DF0002079C0F3C01000B104E040F2C3418BA0E1
:100E000000F0F0FC00BF00BF207900F01F00401C84
:100E1000182805D8207900F01F00401C00B104E01C
:100E200040F2C44181A000F0DDFC00BF00BF60685B
:100E3000C0F30820401CB0F5F07F06D86068C0F30E
:100E40000820401C142800D304E040F2C54177A0DC
:100E500000F0C8FC00BF00BF0121606801EB10700A
:100E6000102805D8606801EB1070022800D304E058
:100E700040F2C6416DA000F0B5FC00BF2079C0F380
:100E8000C01008B9754901E075480168207900F083
:100E90001F00401CB1FBF0F76068C0F30820401C45
:100EA00000FB07F500BF6F48874203D86E488742B2
:100EB00000D304E040F2CB415CA000F093FC00BF03
:100EC00000BF6A48854203D84010854200D304E041
:100ED00040F2CC4155A000F085FC00BF00BF0121CD
:100EE000606801EB1070B5FBF0F06149884209D8E9
:100EF0000121606801EB1070B5FBF0F05D4988429C
:100F000000D304E040F2CD4148A000F06BFC00BFEC
:100F100000BF6068C0F30360401C102806D86068FA
:100F2000C0F30360401C022800D304E040F2CE412D
:100F30003EA000F057FC00BF00BF6068C0F3035044
:100F4000401C102806D86068C0F30350401C0228DB
:100F500000D304E040F2CF4134A000F043FC00BFD6
:100F600000BF6068C0F30350401CB5FBF0F040497F
:100F7000884209D86068C0F30350401CB5FBF0F00C
:100F80003C49884200D304E04FF49A6127A000F066
:100F900029FC00BF00BF6068C0F30360401CB5FBC4
:100FA000F0F03349884209D86068C0F30360401C00
:100FB000B5FBF0F02F49884200D304E040F2D14164
:100FC0001AA000F00FFC00BF00BF2078012801D05C
:100FD000207800B904E040F2D34114A000F002FCF4
:100FE00000BF00BF2448008800F0010000B104E009
:100FF00040F2D4410DA000F0F5FB00BF2079C109FB
:101000001E48006861F3C7101C49086060680860EA
:10101000207820B90120FFF779FE064603E0002082
:10102000FFF774FE06463046BDE8F0812E2E5C2E9A
:101030002E5C647269766572735C686333325F6CD0
:101040006C5F6472697665725C7372635C6863334B
:10105000325F6C6C5F636C6B2E63000000127A0071
:101060000480FF1F40787D0140420F0000389C1C27
:1010700000C2EB0BC0E1E400FE4305400041054027
:101080000146002009B9C01E22E000224A604A68D9
:1010900022F080024A604A6822F01F024A6013234D
:1010A0004A6863F310224A604A6822F0704202F1F3
:1010B00080524A604A6822F0706202F180724A608F
:1010C0004A6822F4700202F580124A6001220A7016
:1010D000704770B504460D462946204602F082FB53
:1010E00002F0BCFF70BD10B50446204602F038FD8A
:1010F00002F0B4FF10BDF8B505460C460020009084
:101100006FF0070609E02846FFF750FD012801D1DE
:10111000002605E00098401C00900098A042F2D9FB
:1011200000BF3046F8BD000070B50446002500BF82
:101130000CB1012C00D104E040F26D4114A000F08C
:1011400051FB00BF00BF1E48008800F0010000B145
:1011500004E040F26E410EA000F044FB00BF6CB909
:101160001848007800F00700042802D16FF0050548
:101170000BE0012012492231087006E000201049DE
:10118000223108704815FFF705FD284670BD0000A4
:101190002E2E5C2E2E5C647269766572735C6863B9
:1011A00033325F6C6C5F6472697665725C73726314
:1011B0005C686333325F6C6C5F636C6B2E63000042
:1011C000FE4305402640054070B5044614B96FF053
:1011D000020548E000BF2078012801D0207800B93E
:1011E00004E04FF48A6121A000F0FCFA00BF00BFC8
:1011F000607810B16078012800D104E040F25141DC
:101200001AA000F0EFFA00BF00BFA07828B1A078C4
:10121000012802D0A078032800D104E040F2524116
:1012200012A000F0DFFA00BF00BF1C48008800F0E9
:10123000010000B104E040F253410CA000F0D2FAEA
:1012400000BF6078154923310870A078091D087027
:10125000207820B90120FFF767FF054603E0002052
:10126000FFF762FF0546284670BD00002E2E5C2E5B
:101270002E5C647269766572735C686333325F6C8E
:101280006C5F6472697665725C7372635C68633309
:10129000325F6C6C5F636C6B2E630000FE43054035
:1012A0000146002009B9C01E03E000220A704A70FE
:1012B0008A70704770B50446002500BF0CB1012C40
:1012C00000D104E040F2B3311EA000F08BFA00BF61
:1012D00000BF2848008800F0010000B104E04FF48E
:1012E0006D7118A000F07EFA00BFFCB922480078AA
:1012F00000F00700032802D16FF0050520E01E482A
:10130000DA300068C0F3C01058B91B48001D0078DF
:1013100010B96FF0050513E0012017490C31087072
:101320000EE0012014490C31087009E00020124938
:101330000C3108704FF480510820FFF7DCFE0546A1
:10134000284670BD2E2E5C2E2E5C64726976657206
:10135000735C686333325F6C6C5F6472697665726C
:101360005C7372635C686333325F6C6C5F636C6B7D
:101370002E630000FE4305402640054070B504463C
:1013800014B96FF002057FE000BF2078012801D07A
:10139000207800B904E040F293313CA000F022FA3A
:1013A00000BF00BF607840B16078102805D0607839
:1013B000202802D06078302800D104E04FF4657115
:1013C00032A000F00FFA00BF00BFA07810B1A078E3
:1013D000402800D104E040F295312CA000F002FA40
:1013E00000BF00BFE078802801D0E07800B904E0B9
:1013F00040F2963125A000F0F5F900BF00BF20793A
:10140000012817D02079022814D02079032811D080
:10141000207904280ED0207905280BD020790628C1
:1014200008D02079072805D02079082802D0207913
:10143000092800D104E040F2973114A000F0D2F95D
:1014400000BF00BF1D48008800F0010000B104E0AB
:101450004FF466710DA000F0C5F900BF207918495E
:101460000870E07861780843A17808431349123185
:101470000870207820B90120FFF71CFF054603E023
:101480000020FFF717FF0546284670BD2E2E5C2E64
:101490002E5C647269766572735C686333325F6C6C
:1014A0006C5F6472697665725C7372635C686333E7
:1014B000325F6C6C5F636C6B2E630000FE43054013
:1014C000A24005400146002009B9C01E08E00122E3
:1014D0000A7000228A704A708022CA7005220A713E
:1014E000704700002DE9FC4704460F469046994698
:1014F000DDE90AA54FF0FF361048844208D01048B5
:10150000844205D00F48844202D00F48844208D15B
:101510004B46424639462046CDE900A500F016F874
:1015200006463EB14B46424639462046009500F0FD
:10153000C9F806463046BDE8FC87000000D00140EF
:1015400000D4014000100240001402402DE9FF4F7A
:101550008BB082466FF00200079000BF484882457A
:1015600008D04848824505D04748824502D04748C0
:10157000824500D104E04FF4107145A000F032F92B
:1015800000BF0C9CDDF834900E98002873D018989A
:10159000002870D0002C6ED0B9F1000F6BD04FEA4C
:1015A0008900B4FBF0F0451E002D64D0FF2D62D8F9
:1015B00000206A1C404104234FF0000CA2FB031BD7
:1015C00000FB03B002FB0C02A1FB097302FB093212
:1015D00001FB0C284FF480700021A7FB00B308FB2F
:1015E000003007FB010C22460B4658466146FEF7C9
:1015F0007FFE8021461A7F2E3DD80E9805601898F0
:1016000006601998A8B34A004FF0000C3B46A3FBB4
:10161000020B08FB02B107FB0C18074600208022D2
:10162000B11840EB00030022A1FB040C03FB04C330
:1016300001FB0231CDE9080138464146FEF796FE2E
:10164000CDE90201DDE90801FEF790FECDE90001D8
:10165000DDE90223FEF73CFFCDE90401FEF792FE2F
:1016600083464FF07E51FEF72DFF0A9019990A9894
:1016700008600020079007980FB0BDE8F08F0000C9
:1016800000D0014000D4014000100240001402408C
:101690002E2E5C2E2E5C647269766572735C6863B4
:1016A00033325F6C6C5F6472697665725C7372630F
:1016B0005C686333325F6C6C5F75736172742E6348
:1016C000000000002DE9FF4F89B006469A466FF0F2
:1016D0000200079000BF3248864208D03148864257
:1016E00005D03148864202D03048864200D104E01D
:1016F00040F279112EA000F075F800BFDDF82890B7
:101700000B9DBAF1000F47D0B9F1000F44D0002D66
:1017100042D009EB89004000A900B0FBF1F0401D68
:101720000A21B0FBF1F0441EB4B3FF2C34D8CAF840
:101730000040169870B30020621C404104234FF013
:10174000000CA2FB031E00FB03E002FB0C0263463D
:10175000A1FB057C02FB05C201FB0328384641467C
:10176000FEF704FECDE902014846FEF7F2FDCDE9A1
:101770000001DDE90223FEF7ABFECDE90401FEF72F
:1017800001FE4FF07E510690FEF79CFE83461699AF
:10179000C1F800B00020079007980DB0BDE8F08FA9
:1017A00000D0014000D4014000100240001402406B
:1017B0002E2E5C2E2E5C647269766572735C686393
:1017C00033325F6C6C5F6472697665725C737263EE
:1017D0005C686333325F6C6C5F75736172742E6327
:1017E0000000000070B504460D462A46214602A0BE
:1017F00003F03EFA00BFFEE757726F6E672070611C
:1018000072616D65746572732076616C75653A20DE
:1018100066696C65202573206F6E206C696E65208B
:1018200025640D0A0000000038B50246002300259B
:101830000095D81E00BF0D4D2D682C4600BF0C4DE5
:101840002D68294689B105E00D6805F08003009DEB
:101850006D1C0095009DA54201D8002BF4D013B15A
:101860004A60002001E06FF0070038BD1480FF1FC0
:101870001080FF1F08B50C49096AC1F302630B49C8
:101880000968D9400A4B1944491EB1FBF3F206E03E
:10189000009200BF00994B1E00930029FAD1011E4F
:1018A000A0F10100F4D108BD004005400080FF1FF9
:1018B0008096980070B50446002500BF1D4800685A
:1018C000012800D104E040F21D111BA0FFF78AFFA0
:1018D00000BF00BFF02C00D804E04FF48F7116A0B9
:1018E000FFF780FF00BF13480830006820F0F000C9
:1018F00004F0F00108430F490831086010E06D1C46
:101900001948006AC0F3026118480068C84044F6EC
:101910002061B0FBF1F0A84202D26FF0070070BD69
:1019200004480830006800F0F000A042E7D1002031
:10193000F5E70000000401402E2E5C2E2E5C647240
:1019400069766572735C686333325F6C6C5F647276
:10195000697665725C7372635C686333325F6C6C6A
:101960005F65666D2E630000004005400080FF1F2C
:1019700010B5044600BF3CB14FF6FF7020434FF650
:10198000FF71884200D104E040F2072104A0FFF774
:1019900029FF00BF1048806D20430F49886510BDA6
:1019A0002E2E5C2E2E5C647269766572735C6863A1
:1019B00033325F6C6C5F6472697665725C737263FC
:1019C0005C686333325F6C6C5F696E7465727275EC
:1019D0007074732E630000000010054010B50446BB
:1019E00000BF3CB14FF6FF7020434FF6FF718842B5
:1019F00000D104E04FF4057105A0FFF7F3FE00BF2E
:101A00001148406D204008B1012010BD0020FCE7C6
:101A10002E2E5C2E2E5C647269766572735C686330
:101A200033325F6C6C5F6472697665725C7372638B
:101A30005C686333325F6C6C5F696E74657272757B
:101A40007074732E63000000001005402DE9F0470C
:101A500006460C464FF0000914B96FF0020958E031
:101A600000BF3EB14FF6FF7030434FF6FF71884222
:101A700000D104E040F2D71127A0FFF7B3FE00BF6A
:101A800000BF206810B12068802800D104E04FF426
:101A9000EC7121A0FFF7A6FE00BF00BF606840B157
:101AA0006068102805D06068202802D0606830285F
:101AB00000D104E040F2D91117A0FFF793FE00BF58
:101AC00000BFA068032807D0A068012804D0A06840
:101AD00010B1A068022800D104E04FF4ED710EA00F
:101AE000FFF780FE00BF002511E00120A840304034
:101AF00058B1D4E900010843A16840EA010714483D
:101B0000042101FB0508C8F80070681CC5B2102D3F
:101B1000EBD34846BDE8F0872E2E5C2E2E5C647217
:101B200069766572735C686333325F6C6C5F647294
:101B3000697665725C7372635C686333325F6C6C88
:101B40005F696E74657272757074732E6300000045
:101B5000101005400146002009B9C01E03E0002214
:101B60000A604A608A60704710B51020FFF736FFA0
:101B7000012807D11021032000F052F910B91020DC
:101B8000FFF7F6FE10BD10B52020FFF727FF012854
:101B900006D1202100F044F910B92020FFF7E8FE1B
:101BA00010BD000070B504460D4600BF2CB11148B1
:101BB00020431049884200D103E084210EA0FFF7A2
:101BC00011FE00BF00BF0DB1012D00D103E0852142
:101BD00009A0FFF707FE00BF012D05D1124840689C
:101BE000A0431149486004E00F48406820430E4973
:101BF000486070BD79FD0F0F2E2E5C2E2E5C647236
:101C000069766572735C686333325F6C6C5F6472B3
:101C1000697665725C7372635C686333325F6C6CA7
:101C20005F6663672E630000008004402DE9F05F6B
:101C300005460F4614464FF0000B14B96FF0020B27
:101C4000D1E000BF6948008800F0010000B103E066
:101C5000FB2167A0FFF7C6FD00BF00BF4DB1012DFE
:101C600007D0022D05D0032D03D0042D01D0052D62
:101C700000D103E0FC215EA0FFF7B4FD00BF00BF70
:101C800017B1B8B200B103E0FD2159A0FFF7AAFDDA
:101C900000BF00BF208810B12088012800D103E0D8
:101CA000FE2153A0FFF79EFD00BF00BF608810B16A
:101CB0006088022800D103E0FF214DA0FFF792FDCC
:101CC00000BF00BFA08810B1A088042800D104E0A4
:101CD0004FF4807146A0FFF785FD00BF00BFE0888C
:101CE00028B1E088102802D0E088202800D104E044
:101CF00040F201113EA0FFF775FD00BF00BF208933
:101D000018B12089B0F5804F00D104E04FF4817103
:101D100037A0FFF767FD00BF00BF608910B1608981
:101D2000402800D104E040F2031131A0FFF75AFD32
:101D300000BF00BFA08918B1A089B0F5007F00D115
:101D400004E04FF482712AA0FFF74CFD00BF00BFF2
:101D5000E08918B1E089B0F5805F00D104E040F27D
:101D6000051123A0FFF73EFD00BF00BF208A18B178
:101D7000208AB0F5004F00D104E04FF483711CA01D
:101D8000FFF730FD00BF00262BE00120B0403840B7
:101D900028B3208861880843A1880843E188084364
:101DA00061890843A1890843E1890843218940EA00
:101DB000010A45F27728208A40EA0A0A48F40048D6
:101DC0000A48001D00EB851000EB8609B9F80000F9
:101DD00020EA08000AEA08010843A9F80000701C7C
:101DE000C6B2102ED1D35846BDE8F09FFC3B05404B
:101DF0002E2E5C2E2E5C647269766572735C68634D
:101E000033325F6C6C5F6472697665725C737263A7
:101E10005C686333325F6C6C5F6770696F2E630060
:101E200070B504460D4600BF4CB1012C07D0022C02
:101E300005D0032C03D0042C01D0052C00D104E0E4
:101E400040F2ED110CA0FFF7CDFC00BF00BF15B1B3
:101E5000A8B200B104E04FF4F77107A0FFF7C2FC8D
:101E600000BF114901EB0410B0F80008284008B188
:101E7000012070BD0020FCE72E2E5C2E2E5C6472CB
:101E800069766572735C686333325F6C6C5F647231
:101E9000697665725C7372635C686333325F6C6C25
:101EA0005F6770696F2E6300003005402DE9F041D7
:101EB00004460F46164600BF4CB1012C07D0022C39
:101EC00005D0032C03D0042C01D0052C00D104E054
:101ED00040F273111EA0FFF785FC00BF00BF17B1D1
:101EE000B8B200B104E04FF4BA7119A0FFF77AFC60
:101EF00000BF00BF0F2E03D9202E02D33B2E00D8E7
:101F000004E040F2751112A0FFF76CFC00BF00BFA7
:101F10001B48008800F0010000B104E04FF4BB71E1
:101F20000BA0FFF75FFC00BF00250DE00120A840DB
:101F3000384038B11248801D00EB841000EB850852
:101F4000A8F80060681CC5B2102DEFD3BDE8F08181
:101F50002E2E5C2E2E5C647269766572735C6863EB
:101F600033325F6C6C5F6472697665725C73726346
:101F70005C686333325F6C6C5F6770696F2E6300FF
:101F8000FC3B054010B5044600BF44B1B4F5804F9A
:101F900005D0B4F5004F02D0B4F5404F00D104E0B5
:101FA00040F2C9110EA0FFF71DFC00BF00BF18488A
:101FB000008800F0010000B104E04FF4E57108A0D2
:101FC000FFF710FC00BF1248001F0088C0F30D008F
:101FD00004F4404108430E49091F088010BD000069
:101FE0002E2E5C2E2E5C647269766572735C68635B
:101FF00033325F6C6C5F6472697665725C737263B6
:102000005C686333325F6C6C5F6770696F2E63006E
:10201000FC3B05400146002009B9C01E09E0002232
:102020000A804A80CA800A820A814A818A81CA81DA
:102030008A80704770B504460D4600BF4CB1012C34
:1020400007D0022C05D0032C03D0042C01D0052C82
:1020500000D104E04FF417710BA0FFF7C3FB00BFE2
:1020600000BF15B1A8B200B104E040F25D2106A0A6
:10207000FFF7B8FB00BF1048102101FB04063088B1
:102080002843308070BD00002E2E5C2E2E5C6472C2
:1020900069766572735C686333325F6C6C5F64721F
:1020A000697665725C7372635C686333325F6C6C13
:1020B0005F6770696F2E63000C38054070B5044689
:1020C00000260CB9F61E4BE000BF2088B0F5007F5B
:1020D00000DA03E0C82123A0FFF784FB00BF2088BB
:1020E000400900EB4000202101EB4000B4F9021050
:1020F00088420AD82088400900EB4000252101EBE6
:102100004000B4F90210884206D2B4F90200202837
:1021100002D36FF0020623E060882049042212FBFC
:1021200000152868C0F3080040F2FF11884208D16A
:1021300020882860B4F90210194A606842F821002A
:102140000EE020882968C1F30801884206D1B4F95D
:102150000210134A606842F8210001E06FF00106A6
:10216000304670BD2E2E5C2E2E5C647269766572D0
:10217000735C686333325F6C6C5F6472697665723E
:102180005C7372635C686333325F6C6C5F696E743E
:10219000657272757074732E630000005C100540E8
:1021A0002080FF1F30B501460020002901DB7F2978
:1021B00002DD6FF002000BE0064B042404FB013249
:1021C00040F2FF1313600023CCB2034D45F82430D6
:1021D00030BD00005C1005402080FF1F10B5024993
:1021E0000868804710BD00002080FF1F10B502491D
:1021F0004868804710BD00002080FF1F10B50249CD
:102200008868804710BD00002080FF1F10B502497C
:10221000C868804710BD00002080FF1F10B502492C
:102220000869804710BD00002080FF1F10B50249DB
:102230004869804710BD00002080FF1F10B502498B
:102240008869804710BD00002080FF1F10B502493B
:10225000C869804710BD00002080FF1F10B50249EB
:10226000086A804710BD00002080FF1F10B502499A
:10227000486A804710BD00002080FF1F10B502494A
:10228000886A804710BD00002080FF1F10B50249FA
:10229000C86A804710BD00002080FF1F10B50249AA
:1022A000086B804710BD00002080FF1F10B5024959
:1022B000486B804710BD00002080FF1F10B5024909
:1022C000886B804710BD00002080FF1F10B50249B9
:1022D000C86B804710BD00002080FF1F10B5024969
:1022E000086C804710BD00002080FF1F10B5024918
:1022F000486C804710BD00002080FF1F10B50249C8
:10230000886C804710BD00002080FF1F10B5024977
:10231000C86C804710BD00002080FF1F10B5024927
:10232000086D804710BD00002080FF1F10B50249D6
:10233000486D804710BD00002080FF1F10B5024986
:10234000886D804710BD00002080FF1F10B5024936
:10235000C86D804710BD00002080FF1F10B50249E6
:10236000086E804710BD00002080FF1F10B5024995
:10237000486E804710BD00002080FF1F10B5024945
:10238000886E804710BD00002080FF1F10B50249F5
:10239000C86E804710BD00002080FF1F10B50249A5
:1023A000086F804710BD00002080FF1F10B5024954
:1023B000486F804710BD00002080FF1F10B5024904
:1023C000886F804710BD00002080FF1F10B50249B4
:1023D000C86F804710BD00002080FF1F10B5024964
:1023E000D1F88000804710BD2080FF1F10B5024942
:1023F000D1F88400804710BD2080FF1F10B502492E
:10240000D1F88800804710BD2080FF1F10B5024919
:10241000D1F88C00804710BD2080FF1F10B5024905
:10242000D1F89000804710BD2080FF1F10B50249F1
:10243000D1F89400804710BD2080FF1F10B50249DD
:10244000D1F89800804710BD2080FF1F10B50249C9
:10245000D1F89C00804710BD2080FF1F10B50249B5
:10246000D1F8A000804710BD2080FF1F10B50249A1
:10247000D1F8A400804710BD2080FF1F10B502498D
:10248000D1F8A800804710BD2080FF1F10B5024979
:10249000D1F8AC00804710BD2080FF1F10B5024965
:1024A000D1F8B000804710BD2080FF1F10B5024951
:1024B000D1F8B400804710BD2080FF1F10B502493D
:1024C000D1F8B800804710BD2080FF1F10B5024929
:1024D000D1F8BC00804710BD2080FF1F10B5024915
:1024E000D1F8C000804710BD2080FF1F10B5024901
:1024F000D1F8C400804710BD2080FF1F10B50249ED
:10250000D1F8C800804710BD2080FF1F10B50249D8
:10251000D1F8CC00804710BD2080FF1F10B50249C4
:10252000D1F8D000804710BD2080FF1F10B50249B0
:10253000D1F8D400804710BD2080FF1F10B502499C
:10254000D1F8D800804710BD2080FF1F10B5024988
:10255000D1F8DC00804710BD2080FF1F10B5024974
:10256000D1F8E000804710BD2080FF1F10B5024960
:10257000D1F8E400804710BD2080FF1F10B502494C
:10258000D1F8E800804710BD2080FF1F10B5024938
:10259000D1F8EC00804710BD2080FF1F10B5024924
:1025A000D1F8F000804710BD2080FF1F10B5024910
:1025B000D1F8F400804710BD2080FF1F10B50249FC
:1025C000D1F8F800804710BD2080FF1F10B50249E8
:1025D000D1F8FC00804710BD2080FF1F10B50249D4
:1025E000D1F80001804710BD2080FF1F10B50249BF
:1025F000D1F80401804710BD2080FF1F10B50249AB
:10260000D1F80801804710BD2080FF1F10B5024996
:10261000D1F80C01804710BD2080FF1F10B5024982
:10262000D1F81001804710BD2080FF1F10B502496E
:10263000D1F81401804710BD2080FF1F10B502495A
:10264000D1F81801804710BD2080FF1F10B5024946
:10265000D1F81C01804710BD2080FF1F10B5024932
:10266000D1F82001804710BD2080FF1F10B502491E
:10267000D1F82401804710BD2080FF1F10B502490A
:10268000D1F82801804710BD2080FF1F10B50249F6
:10269000D1F82C01804710BD2080FF1F10B50249E2
:1026A000D1F83001804710BD2080FF1F10B50249CE
:1026B000D1F83401804710BD2080FF1F10B50249BA
:1026C000D1F83801804710BD2080FF1F10B50249A6
:1026D000D1F83C01804710BD2080FF1F10B5024992
:1026E000D1F84001804710BD2080FF1F10B502497E
:1026F000D1F84401804710BD2080FF1F10B502496A
:10270000D1F84801804710BD2080FF1F10B5024955
:10271000D1F84C01804710BD2080FF1F10B5024941
:10272000D1F85001804710BD2080FF1F10B502492D
:10273000D1F85401804710BD2080FF1F10B5024919
:10274000D1F85801804710BD2080FF1F10B5024905
:10275000D1F85C01804710BD2080FF1F10B50249F1
:10276000D1F86001804710BD2080FF1F10B50249DD
:10277000D1F86401804710BD2080FF1F10B50249C9
:10278000D1F86801804710BD2080FF1F10B50249B5
:10279000D1F86C01804710BD2080FF1F10B50249A1
:1027A000D1F87001804710BD2080FF1F10B502498D
:1027B000D1F87401804710BD2080FF1F10B5024979
:1027C000D1F87801804710BD2080FF1F10B5024965
:1027D000D1F87C01804710BD2080FF1F10B5024951
:1027E000D1F88001804710BD2080FF1F10B502493D
:1027F000D1F88401804710BD2080FF1F10B5024929
:10280000D1F88801804710BD2080FF1F10B5024914
:10281000D1F88C01804710BD2080FF1F10B5024900
:10282000D1F89001804710BD2080FF1F10B50249EC
:10283000D1F89401804710BD2080FF1F10B50249D8
:10284000D1F89801804710BD2080FF1F10B50249C4
:10285000D1F89C01804710BD2080FF1F10B50249B0
:10286000D1F8A001804710BD2080FF1F10B502499C
:10287000D1F8A401804710BD2080FF1F10B5024988
:10288000D1F8A801804710BD2080FF1F10B5024974
:10289000D1F8AC01804710BD2080FF1F10B5024960
:1028A000D1F8B001804710BD2080FF1F10B502494C
:1028B000D1F8B401804710BD2080FF1F10B5024938
:1028C000D1F8B801804710BD2080FF1F10B5024924
:1028D000D1F8BC01804710BD2080FF1F10B5024910
:1028E000D1F8C001804710BD2080FF1F10B50249FC
:1028F000D1F8C401804710BD2080FF1F10B50249E8
:10290000D1F8C801804710BD2080FF1F10B50249D3
:10291000D1F8CC01804710BD2080FF1F10B50249BF
:10292000D1F8D001804710BD2080FF1F10B50249AB
:10293000D1F8D401804710BD2080FF1F10B5024997
:10294000D1F8D801804710BD2080FF1F10B5024983
:10295000D1F8DC01804710BD2080FF1F10B502496F
:10296000D1F8E001804710BD2080FF1F10B502495B
:10297000D1F8E401804710BD2080FF1F10B5024947
:10298000D1F8E801804710BD2080FF1F10B5024933
:10299000D1F8EC01804710BD2080FF1F10B502491F
:1029A000D1F8F001804710BD2080FF1F10B502490B
:1029B000D1F8F401804710BD2080FF1F10B50249F7
:1029C000D1F8F801804710BD2080FF1F10B50249E3
:1029D000D1F8FC01804710BD2080FF1F10B50446D0
:1029E00004F0010048B100BF40F223101A4908600A
:1029F00043F21020086000BF00BF04F0020028B1BD
:102A000000BF16481649086100BF00BF04F004006B
:102A100030B100BF4AF201501249088000BF00BF28
:102A200004F0100018B14AF2085000F001F904F067
:102A3000400018B14AF2035000F0FAF804F08000A8
:102A400040B100BF77200849086007490831086095
:102A500000BF00BF10BD0000000401400100A5A59B
:102A600000800440FC3B05400408054010B50446C6
:102A700004F0010028B100BF00201949086000BF20
:102A800000BF04F0020028B100BF164816490861D3
:102A900000BF00BF04F0040030B100BF4FF4254078
:102AA0001249088000BF00BF04F0100018B14AF2BC
:102AB000085000F0AFF804F0400018B14AF203509B
:102AC00000F0A8F804F0800040B100BF762008496B
:102AD000086007490831086000BF00BF10BD000052
:102AE000000401400000A5A500800440FC3B054017
:102AF000040805402DE9F04104460D4616466FF0E6
:102B00000207002E24D029462046B0470746A7B921
:102B100000BF1148046000BF0DB9002108E00F4953
:102B2000096AC1F302620E490968D140B1FBF5F1AF
:102B300008460C49086000BF0AE04FF0FF3700BFAD
:102B400007B904E040F2791107A0FEF74BFE00BF81
:102B50003846BDE8F08100001080FF1F00400540AE
:102B60000080FF1F1480FF1F2E2E5C2E2E5C6472CF
:102B700069766572735C686333325F6C6C5F647234
:102B8000697665725C7372635C686333325F6C6C28
:102B90005F7574696C6974792E63000010B500BFAD
:102BA0000F48008800F00200022800D104E040F243
:102BB0003C410CA0FEF716FE00BF0948001D00783E
:102BC00000F0C00040F00F000549091D08701020FA
:102BD0000349113108701E20FEF74CFE002010BD85
:102BE000FE4305402E2E5C2E2E5C64726976657263
:102BF000735C686333325F6C6C5F647269766572B4
:102C00005C7372635C686333325F6C6C5F707763B4
:102C10002E63000004490988814341F42541034A99
:102C2000A2F8FE1370470000FE4305400040054037
:102C3000034909880143034AA2F8FE1370470000C4
:102C4000FE430540004005401CB517208DF80400E8
:102C500003208DF8050018208DF8060005208DF85A
:102C600007000B208DF8000016208DF801000020D1
:102C70008DF802008DF8030001A900F023FB10B1CC
:102C800005A001F0F5FF6946002000F009FC10B135
:102C900006A001F0EDFF1CBD53657420446174650E
:102CA000206661696C6564210D0A0000536574201B
:102CB00054696D65206661696C6564210D0A0000C8
:102CC00010B5044600BF0CB1012C00D104E040F265
:102CD000C31103A0FEF786FD00BF0D48046010BDC0
:102CE0002E2E5C2E2E5C647269766572735C68634E
:102CF00033325F6C6C5F6472697665725C737263A9
:102D00005C686333325F6C6C5F7274632E630000C7
:102D10009C00984208B5002000211F4A11601F49FD
:102D2000096AC1F302621E490968D14044F6206273
:102D3000B1FBF2F164225143009107E0009911B90F
:102D40006FF0070006E00099491E009112490968DA
:102D50000029F3D100BFF0B901210F4A11600F49DA
:102D6000096AC1F302620E490968D14044F6206243
:102D7000B1FBF2F164225143009107E0009911B9CF
:102D80006FF0070006E00099491E009102490968AA
:102D90000029F3D100BF08BD000098420040054063
:102DA0000080FF1F10B50446072C21D2DFE804F095
:102DB00004080C1014181C000FA001F059FF18E0B3
:102DC00010A001F055FF14E011A001F051FF10E038
:102DD00012A001F04DFF0CE013A001F049FF08E044
:102DE00014A001F045FF04E015A001F041FF00E050
:102DF00000BF00BF10BD000053756E6461790D0AFD
:102E0000000000004D6F6E6461790D0A0000000043
:102E1000547565736461790D0A0000005765646E2E
:102E200065736461790D0A00546875727364617921
:102E30000D0A00004672696461790D0A0000000005
:102E400053617475726461790D0A000008B5002041
:102E50001449096829B3134968310968012920D048
:102E60000121104A643211600F49096AC1F30262FC
:102E70000E490968D14044F62062B1FBF2F16422A8
:102E80005143009107E0009911B96FF0070007E086
:102E90000099491E00910349683109680129F2D15E
:102EA00000BF08BD9C009842004005400080FF1F05
:102EB00008B500201449096821B31349683109682D
:102EC00001B30021104A643211601049096AC1F34C
:102ED00002620F490968D14044F62062B1FBF2F169
:102EE00064225143009107E0009911B96FF0070087
:102EF00007E00099491E00910349683109680029DB
:102F0000F2D100BF08BD00009C009842004005407F
:102F10000080FF1F00200249096801B101207047AD
:102F20009C00984270B505460C4600260CB9F61E6A
:102F300043E000BF0DB1012D00D104E04FF40F714B
:102F40001FA0FEF74FFC00BFFFF780FF10B14FF04E
:102F5000FF3632E0264890F828002070244890F888
:102F600024006070224890F82000A0702048007F64
:102F7000E070EDB9207800F00F002178091101EB25
:102F8000810100EB41002070607800F00F00617853
:102F9000091101EB810100EB41006070A07800F0A5
:102FA0000F00A178091101EB810100EB4100A07035
:102FB000FFF77EFF08B14FF0FF36304670BD0000CE
:102FC0002E2E5C2E2E5C647269766572735C68636B
:102FD00033325F6C6C5F6472697665725C737263C6
:102FE0005C686333325F6C6C5F7274632E630000E5
:102FF00000C0044070B505460C4600260CB9F61E0C
:1030000051E000BF0DB1012D00D104E040F2B1212B
:1030100026A0FEF7E7FB00BFFFF718FF10B14FF047
:10302000FF3640E02D48007E20702C48007D607007
:103030002A48007CA0702A48006870B9207800F007
:103040002000202806D1207800F0DF00207020200A
:10305000E07004E00020E07001E00020E070EDB9D5
:10306000207800F00F002178091101EB810100EBBD
:1030700041002070607800F00F006178091101EBC9
:10308000810100EB41006070A07800F00F00A17892
:10309000091101EB810100EB4100A070FFF708FF6F
:1030A00008B14FF0FF36304670BD00002E2E5C2E6A
:1030B0002E5C647269766572735C686333325F6C30
:1030C0006C5F6472697665725C7372635C686333AB
:1030D000325F6C6C5F7274632E63000000C004404A
:1030E0008C00984270B5044600250CB9ED1E80E0B6
:1030F00000BF207810B12078902800D103E0D121C2
:103100003DA0FEF76FFB00BF00BF607810B1607894
:10311000082800D103E0D22137A0FEF763FB00BFEF
:1031200000BFA07888B1A07801280ED0A07802282E
:103130000BD0A078032808D0A078042805D0A07868
:10314000052802D0A078062800D103E0D3212AA0C8
:10315000FEF748FB00BF00BFE07810B1E0788028A0
:1031600000D103E0D42124A0FEF73CFB00BF00BF48
:10317000E088B0F5007F00D203E0D5211EA0FEF765
:1031800031FB00BF00BF207910B12079402800D169
:1031900003E0D62118A0FEF725FB00BF2248007BE4
:1031A00000F06F00217801F0900108431E49087378
:1031B000A078617808432179084300F04F001A494C
:1031C000097901F0B001084317490871E078E188F6
:1031D000C1F30021084300F0810013493831097818
:1031E00001F07E010843104938310870A079091DAB
:1031F0000870284670BD00002E2E5C2E2E5C647276
:1032000069766572735C686333325F6C6C5F64729D
:10321000697665725C7372635C686333325F6C6C91
:103220005F7274632E63000000C0044070B50446F2
:103230000D4600BF24B144F06000602800D104E0D6
:1032400040F259310FA0FEF7CDFA00BF00BF0DB11B
:10325000012D00D104E040F25A310AA0FEF7C2FA73
:1032600000BFE6B266B135B11248007AF1B2084348
:103270001049087204E00F48007AB0430D49087203
:1032800070BD00002E2E5C2E2E5C64726976657215
:10329000735C686333325F6C6C5F6472697665720D
:1032A0005C7372635C686333325F6C6C5F7274630F
:1032B0002E63000000C004400120014908707047DF
:1032C0001880FF1F70B505460C4600260CB9F61E87
:1032D000C9E000BF0DB1012D00D104E040F203218F
:1032E00062A0FEF77FFA00BF002D4CD000BF20780F
:1032F00000F00F002178091101EB810100EB410082
:10330000632800D804E040F2052158A0FEF76AFACD
:1033100000BF00BF607800F00F006178091101EB79
:10332000810100EB410058B1607800F00F00617836
:10333000091101EB810100EB41000C2800D804E0E9
:1033400040F2062149A0FEF74DFA00BF00BFA07869
:1033500000F00F00A178091101EB810100EB4100A1
:1033600058B1A07800F00F00A178091101EB81019C
:1033700000EB41001F2800D804E040F207213BA0E9
:10338000FEF730FA24E000BF2078632800D804E07C
:1033900040F2092135A0FEF725FA00BF00BF607892
:1033A00018B160780C2800D804E040F20A212FA060
:1033B000FEF718FA00BF00BFA07818B1A0781F2848
:1033C00000D804E040F20B2128A0FEF70BFA00BF62
:1033D00000BFE078062800D804E040F20D2123A0C9
:1033E000FEF700FA00BFFFF731FD10B14FF0FF36D6
:1033F00039E035BB20780A21B0FBF1F201FB120065
:1034000021780A22B1FBF2F100EB01102070607804
:103410000A21B0FBF1F201FB120061780A22B1FB34
:10342000F2F100EB01106070A0780A21B0FBF1F21C
:1034300001FB1200A1780A22B1FBF2F100EB0110AE
:10344000A0702078154908706078091F0870A0786E
:10345000091F0870E078114928390877FFF728FD1F
:1034600008B14FF0FF36304670BD00002E2E5C2EA6
:103470002E5C647269766572735C686333325F6C6C
:103480006C5F6472697665725C7372635C686333E7
:10349000325F6C6C5F7274632E63000028C004405E
:1034A00070B505460C4600260CB9F61EF5E000BFC7
:1034B0000DB1012D00D104E04FF41B7178A0FEF78F
:1034C00091F900BF002D66D081480068002829D1FD
:1034D00000BF207800F00F002178091101EB810175
:1034E00000EB410058B1207800F00F00217809115D
:1034F00001EB810100EB41000C2800D804E040F210
:103500006F2167A0FEF76EF900BF00BFE07810B131
:10351000E078202800D104E04FF41C7160A0FEF791
:1035200061F912E000BF207800F00F002178091146
:1035300001EB810100EB4100172800D804E040F2C4
:10354000722157A0FEF74EF900BF00BF607800F06F
:103550000F006178091101EB810100EB41003B286C
:1035600000D804E04FF41D714DA0FEF73BF900BFF9
:1035700000BFA07800F00F00A178091101EB8101D4
:1035800000EB41003B2800D804E040F2752144A044
:10359000FEF728F93DE04E480068C8B900BF207822
:1035A00018B120780C2800D804E04FF41E713CA01C
:1035B000FEF718F900BF00BFE07810B1E0782028CE
:1035C00000D104E040F2792135A0FEF70BF90AE0C2
:1035D00000BF2078172800D804E040F27B2130A0FB
:1035E000FEF700F900BF00BF60783B2800D804E078
:1035F00040F27D212AA0FEF7F5F800BF00BFA078B9
:103600003B2800D804E040F27E2125A0FEF7EAF82E
:1036100000BFFFF71BFC10B14FF0FF363DE035BB9C
:1036200020780A21B0FBF1F201FB120021780A2276
:10363000B1FBF2F100EB0110207060780A21B0FBC1
:10364000F1F201FB120061780A22B1FBF2F100EB0A
:1036500001106070A0780A21B0FBF1F201FB1200AA
:10366000A1780A22B1FBF2F100EB0110A07018481A
:10367000006830B9E078202803D1207840F020009D
:10368000207020781349087660780875A07808744F
:10369000FFF70EFC08B14FF0FF36304670BD00005A
:1036A0002E2E5C2E2E5C647269766572735C686384
:1036B00033325F6C6C5F6472697665725C737263DF
:1036C0005C686333325F6C6C5F7274632E630000FE
:1036D0008C00984200C004400146002009B9C01E79
:1036E00008E090220A7008224A7000228A70CA708C
:1036F0000A71CA80704700002DE9F04704460F4662
:1037000090464FF0000900BF24B144F00F000F288D
:1037100000D103E0A92126A0FEF764F800BF00BF96
:10372000072F00D803E0AA2121A0FEF75BF800BF15
:1037300000BFB8F1070F00D803E0AB211CA0FEF7D3
:1037400051F800BF00BF26480068772800D103E089
:10375000AC2117A0FEF746F800BF24E004F00100FA
:10376000E0B14FEAC960050E281DC6B207FA05F0A0
:1037700008FA06F108430721A9400722B240114385
:1037800008400721A9400722B2401143144A121FE2
:1037900012688A4310431249091F0860640809F13E
:1037A000010000F0FF09002CD8D1BDE8F08700002F
:1037B0002E2E5C2E2E5C647269766572735C686373
:1037C00033325F6C6C5F6472697665725C737263CE
:1037D0005C686333325F6C6C5F7372616D2E630083
:1037E000040805402DE9FF4105460C460026CA485D
:1037F00000680390C84840680290C74880680190FC
:10380000C548C068009000BF04F0E060E8B104F073
:10381000E060B0F1807F18D004F0E060B0F1007F8C
:1038200013D004F0E060B0F1407F0ED004F0E0600F
:10383000B0F1806F09D004F0E060B0F1A06F04D067
:1038400004F0E060B0F1C06F00D104E04FF42E71DD
:10385000B2A0FDF7C7FF00BF00BF04F07000B8B111
:1038600004F07000102813D004F0700020280FD04E
:1038700004F0700030280BD004F07000402807D00E
:1038800004F07000502803D004F07000602800D1CC
:1038900004E040F2B921A1A0FDF7A4FF00BF00BFE2
:1038A00004F4E020E8B104F4E020B0F5803F18D043
:1038B00004F4E020B0F5003F13D004F4E020B0F5AC
:1038C000403F0ED004F4E020B0F5802F09D004F47E
:1038D000E020B0F5A02F04D004F4E020B0F5C02F14
:1038E00000D104E040F2BA218CA0FDF77BFF00BFBD
:1038F00000BF04F4E000E8B104F4E000B0F5801F7C
:1039000018D004F4E000B0F5001F13D004F4E00078
:10391000B0F5401F0ED004F4E000B0F5800F09D0E0
:1039200004F4E000B0F5A00F04D004F4E000B0F51A
:10393000C00F00D104E040F2BB2178A0FDF752FF98
:1039400000BF00BF04F00700B8B104F00700012871
:1039500013D004F0070002280FD004F0070003285A
:103960000BD004F00700042807D004F00700052856
:1039700003D004F00700062800D104E04FF42F71B3
:1039800066A0FDF72FFF00BF00BF04F4E060E8B1C0
:1039900004F4E060B0F5807F18D004F4E060B0F586
:1039A000007F13D004F4E060B0F5407F0ED004F443
:1039B000E060B0F5806F09D004F4E060B0F5A06F6E
:1039C00004D004F4E060B0F5C06F00D104E040F230
:1039D000BD2152A0FDF706FF00BF00BF04F4E04088
:1039E000E8B104F4E040B0F5805F18D004F4E040A2
:1039F000B0F5005F13D004F4E040B0F5405F0ED0A6
:103A000004F4E040B0F5804F09D004F4E040B0F594
:103A1000A04F04D004F4E040B0F5C04F00D104E062
:103A200040F2BE213DA0FDF7DDFE00BF00BF4748CC
:103A3000284000B104E040F2BF2138A0FDF7D2FEDB
:103A400000BF00BF4248008800F0010000B104E060
:103A50004FF4307131A0FDF7C5FE00BF3D4800783E
:103A600000F00700052823D1012600BF2A4800697D
:103A700000F0010000B104E040F2C72127A0FDF7EB
:103A8000B1FE00BF344824490860C0124860886015
:103A9000C86030482638006AC0F302612F480068C9
:103AA000C8404CF25031B0FBF1F73846FDF772F8E0
:103AB00028482638006AA84304EA05010843254936
:103AC000263908620846006AC0F30261234800688C
:103AD000C8404CF25031B0FBF1F73846FDF75AF8C8
:103AE000012E17D10C49039808600298486001988C
:103AF00088600098C86017482638006AC0F30261E1
:103B000016480068C8404CF25031B0FBF1F7384617
:103B1000FDF740F8BDE8FF81008004402E2E5C2EAA
:103B20002E5C647269766572735C686333325F6CB5
:103B30006C5F6472697665725C7372635C68633330
:103B4000325F6C6C5F636C6B2E6300007777770776
:103B5000FE430540264005400EFAFFFF0080FF1F90
:103B60007FB50446002542480068039040484068FD
:103B700002903F48806801903D48C068009000BFB7
:103B80004CB1012C07D0022C05D0032C03D0042CFF
:103B900001D0052C00D104E040F24E2135A0FDF704
:103BA00021FE00BF00BF3F48008800F0010000B1C7
:103BB00004E040F24F212FA0FDF714FE00BF3A4869
:103BC000007800F00700052801D0052C23D101253D
:103BD00000BF2748006900F0010000B104E040F296
:103BE000572124A0FDF7FEFD00BF304820490860A2
:103BF000C01248608860C8602B482638006AC0F34D
:103C000002612B480068C8404CF25031B0FBF1F61D
:103C10003046FCF7BFFF2448047023482638006A6A
:103C2000C0F3026122480068C8404CF25031B0FB3A
:103C3000F1F63046FCF7AEFF012D17D10C49039881
:103C4000086002984860019888600098C86016482B
:103C50002638006AC0F3026115480068C8404CF27B
:103C60005031B0FBF1F63046FCF794FF7FBD000009
:103C7000008004402E2E5C2E2E5C64726976657284
:103C8000735C686333325F6C6C5F64726976657213
:103C90005C7372635C686333325F6C6C5F636C6B24
:103CA0002E630000FE430540264005400EFAFFFF4C
:103CB0000080FF1F2DE9FC4704460F4690469946B9
:103CC000DDE90AA54FF0FF361048844208D01048BD
:103CD000844205D00F48844202D00F48844208D164
:103CE0004B46424639462046CDE900A500F016F87D
:103CF00006463EB14B46424639462046009500F006
:103D0000F3F806463046BDE8FC87000000D00140CD
:103D100000D4014000100240001402402DE9FF4F82
:103D20008FB081465E4B0FCB08AC0FC46FF0020022
:103D3000079000BF5B48814508D05B48814505D0AE
:103D40005A48814502D05A48814500D104E040F2EA
:103D5000872158A0FDF746FD00BF109DDDF844A067
:103D6000129800287ED01C980028FBD0002DF9D096
:103D7000BAF1000FF6D0D9F8140000F4600400BFC7
:103D80005CB1B4F5001F08D0B4F5800F05D0B4F5D0
:103D9000C00F02D0B4F5400F00D104E040F28E21F4
:103DA00044A0FDF71FFD00BF600D08A931F81040C9
:103DB0000AFB04F04000B5FBF0F0A0F1010BBBF1F1
:103DC000FF0F69D80220A0FB043200204FF0010C45
:103DD0001BEB0C0C4041A3FB0C1E02FB0CE203FB93
:103DE00000220020A1FB0A7302FB0A3201FB00281B
:103DF0004FF480710022A7FB010308FB013107FB90
:103E000002112A460023CDE90401FCF771FA802152
:103E1000461A7F2E40D81298C0F800B01C98066051
:103E20001D98B8B349004FF0000C3A46A2FB010EB2
:103E300008FB01E107FB0C18074600208022B2189E
:103E400040EB00030021A2FB050C03FB05C302FBB2
:103E50000131CDE90C0138464146FCF787FACDE93E
:103E6000020100E018E0DDE90C01FCF77FFACDE982
:103E70000001DDE90223FCF72BFBCDE90401FCF78F
:103E800081FA4FF07E510690FCF71CFB0E901D99B5
:103E90000E98086000200790079813B0BDE8F08FD7
:103EA000EC50000000D0014000D40140001002405E
:103EB000001402402E2E5C2E2E5C647269766572B0
:103EC000735C686333325F6C6C5F647269766572D1
:103ED0005C7372635C686333325F6C6C5F757361D3
:103EE00072742E63000000002DE9FF4F8DB005466F
:103EF0009B46484B0FCB09AC0FC46FF002000790F4
:103F000000BF4548854208D04448854205D0444812
:103F1000854202D04348854200D104E04FF4D97174
:103F200041A0FDF75FFC00BFDDF838A00F9EBBF19C
:103F3000000F6BD0BAF1000F68D0002E66D0686910
:103F400000F4600400BF5CB1B4F5001F08D0B4F504
:103F5000800F05D0B4F5C00F02D0B4F5400F00D1EA
:103F600004E040F2BD1130A0FDF73CFC00BF600D45
:103F700009A931F810400AEB8A00410006FB04F061
:103F80004000B1FBF0F0401D0A21B0FBF1F0A0F1C0
:103F90000109B9F1FF0F39D8CBF800901A9898B3FE
:103FA0000220A0FB041200204FF0010C19EB0C0CB6
:103FB00040EB0003A1FB0C0E02FB0CE201FB032211
:103FC00000210346A3FB067C02FB06C200FB01287E
:103FD00038464146FCF7CAF9CDE902015046FCF7E4
:103FE000B8F9CDE90001DDE90223FCF771FACDE96A
:103FF0000401FCF7C7F94FF07E510690FCF762FA16
:1040000008901A990898086000200790079811B046
:10401000BDE8F08FDC50000000D0014000D401402A
:1040200000100240001402402E2E5C2E2E5C6472A2
:1040300069766572735C686333325F6C6C5F64725F
:10404000697665725C7372635C686333325F6C6C53
:104050005F75736172742E630000000070B52B4DA4
:104060002D6805F001051DB1294D2A4E356002E08D
:10407000294D284E3560294D2D7805F0070006287A
:1040800040D2DFE800F003080C11151A214D2D680D
:10409000234E356037E0234D214E356033E04FF439
:1040A00000451F4E35602EE01E4D1D4E35602AE046
:1040B0004FF400451A4E356025E0184DDA352D686D
:1040C000C5F30822154D263DD5F800512B0F134D91
:1040D000DA352D6805F01F04104D263DD5F8005146
:1040E00005F080050DB90F4901E00A4D2968651CEE
:1040F000B1FBF5F5561C75435E1CB5FBF6F5084E95
:10410000356000E000BF00BF70BD000084060140C4
:104110000024F4000480FF1F002D310126400540DB
:104120000080FF1F00127A0000B5FFF797FF002004
:104130000149086000BD000008ED00E02DE9FC47E2
:1041400004460F4690469946DDE90AA54FF0FF3632
:104150001048844208D01048844205D00F48844259
:1041600002D00F48844208D14B4642463946204689
:10417000CDE900A500F016F806463EB14B46424692
:1041800039462046009500F0FDF806463046BDE869
:10419000FC87000000D0014000D401400010024024
:1041A000001402402DE9FF4F8BB080466FF00200F3
:1041B000079000BF6248804508D06248804505D01E
:1041C0006148804502D06148804500D104E040F25A
:1041D000F3115FA0FDF706FB00BF0C9EDDF83490E5
:1041E0000E9800287ED018980028FBD0002EF9D019
:1041F000B9F1000FF6D0D8F80C0000F4004008B177
:10420000012000E0002083464FEAC900CBF1020103
:104210004843B6FBF0F0A0F1010ABAF1FF0F61D8F4
:10422000002210461346DBF1020260EB0300082374
:104230004FF0000CA2FB031E00FB03E002FB0C028C
:1042400060464FF0010C1AEB0C0C40F100000B46DD
:10425000A3FB0C1E02FB0CE203FB00220020A1FBCF
:10426000094302FB093201FB0025280240EA1460E1
:1042700023020021D3F1FF32814113D24FF4807128
:104280000020A4FB012305FB013104FB0010CDE954
:10429000042032460023DDE90401FCF729F88021DF
:1042A000471A04E02002B0FBF6F0A0F180077F2F50
:1042B00041D80E98C0F800A0189807601998C0B3AC
:1042C0004FF480724FF0000C2146A1FB020E05FB5B
:1042D00002E204FB0C25044600208022BA1840EBC1
:1042E000000300E027E00021A2FB060C03FB06C34D
:1042F00002FB0131CDE9080120462946FCF736F8DA
:10430000CDE90201DDE90801FCF730F8CDE9000153
:10431000DDE90223FCF7DCF8CDE90401FCF732F813
:104320004FF07E510690FCF7CDF80A9019990A9843
:1043300008600020079007980FB0BDE8F08F0000DC
:1043400000D0014000D4014000100240001402409F
:104350002E2E5C2E2E5C647269766572735C6863C7
:1043600033325F6C6C5F6472697665725C73726322
:104370005C686333325F6C6C5F75736172742E635B
:10438000000000002DE9FF4F89B004469B466FF006
:104390000200079000BF4048844208D03F48844252
:1043A00005D03F48844202D03E48844200D104E018
:1043B00040F23F113CA0FDF715FA00BFDDF8289050
:1043C0000B9DBBF1000F63D0B9F1000F60D0002D41
:1043D0005ED0E06800F4004008B1012000E0002059
:1043E0008246E800CAF10201484309EB890149000D
:1043F000B1FBF0F0401D0A21B0FBF1F0461EFF2E8C
:1044000046D8CBF800601698F0B3002108460B465A
:10441000DAF1020C60EB030008230022ACFB031E60
:1044200000FB03E00CFB020200204FF0010C16EB36
:104430000C0C40410B46A3FB0C1E02FB0CE203FBE1
:1044400000220023A1FB057C02FB05C201FB03281F
:1044500038464146FBF78AFFCDE902014846FBF7A3
:1044600078FFCDE90001DDE90223FCF731F8CDE961
:104470000401FBF787FF4FF07E510690FCF722F80E
:1044800008901699089800E000E008600020079066
:1044900007980DB0BDE8F08F00D0014000D4014076
:1044A00000100240001402402E2E5C2E2E5C64721E
:1044B00069766572735C686333325F6C6C5F6472DB
:1044C000697665725C7372635C686333325F6C6CCF
:1044D0005F75736172742E63000000002DE9F04176
:1044E00004460D46164600BF1B48844208D01B48B0
:1044F000844205D01A48844202D01A48844200D12E
:1045000004E040F2AD4118A0FDF76CF900BF00BF18
:104510000EB1012E00D104E040F2AE4112A0FDF731
:1045200061F900BF00BF25B145F0EF00EF2800D1D1
:1045300004E040F2AF410CA0FDF754F900BFAFB268
:1045400047B1012E03D1E0683843E06002E0E06843
:10455000B843E060BDE8F08100D0014000D40140E4
:1045600000100240001402402E2E5C2E2E5C64725D
:1045700069766572735C686333325F6C6C5F64721A
:10458000697665725C7372635C686333325F6C6C0E
:104590005F75736172742E63000000000146044A67
:1045A000126AC2F30213034A126822FA03F0704738
:1045B000004005400080FF1F10B5044600BF0B48B7
:1045C000844208D00A48844205D00A48844202D076
:1045D0000948844200D104E040F2835107A0FDF76E
:1045E00001F900BFA06900F0030010BD00D0014038
:1045F00000D4014000100240001402402E2E5C2E18
:104600002E5C647269766572735C686333325F6CCA
:104610006C5F6472697665725C7372635C68633345
:10462000325F6C6C5F75736172742E630000000002
:1046300070B504462046FFF7BFFF4100012000FA95
:1046400001F5284670BD00002DE9F041044600BF89
:104650000F48844208D00F48844205D00E48844257
:1046600002D00E48844200D104E040F241310CA057
:10467000FDF7B8F800BF2046FFF790FF0746204639
:10468000FFF7D6FF0546B7FBF5F63046BDE8F081EB
:1046900000D0014000D4014000100240001402404C
:1046A0002E2E5C2E2E5C647269766572735C686374
:1046B00033325F6C6C5F6472697665725C737263CF
:1046C0005C686333325F6C6C5F75736172742E6308
:1046D000000000002DE9FF4704460F461646002063
:1046E00003904FF6FF70029000BF07B104E040F264
:1046F0002E612FA0FDF776F800BF00BF3948844235
:1047000008D03948844205D03848844202D038481D
:10471000844200D104E040F22F6125A0FDF762F849
:1047200000BF2046FFF790FF8146E06800F08078E8
:10473000B8F1000F1BD1606900F02008B8F1000F3C
:104740000AD102A803AB3A464946CDE90006204605
:10475000FFF7F4FC054614E002A803AB3A464946CD
:10476000CDE900062046FFF7A5FA054609E002A8B4
:1047700003AB3A464946CDE900062046FCF7B2FEB7
:10478000054685B90399A06861F30F20A0600298DF
:104790007F2808D8E06840F00050E0600299A068E7
:1047A00061F30600A060284604B0BDE8F087000071
:1047B0002E2E5C2E2E5C647269766572735C686363
:1047C00033325F6C6C5F6472697665725C737263BE
:1047D0005C686333325F6C6C5F75736172742E63F7
:1047E0000000000000D0014000D401400010024051
:1047F0000014024070B504460D4600BF10488442C4
:1048000008D01048844205D00F48844202D00F4897
:10481000844200D104E040F273510DA0FCF7E2FFA6
:1048200000BF00BF032D00D804E040F2745108A07F
:10483000FCF7D8FF00BFA06965F30100A06170BD5F
:1048400000D0014000D4014000100240001402409A
:104850002E2E5C2E2E5C647269766572735C6863C2
:1048600033325F6C6C5F6472697665725C7372631D
:104870005C686333325F6C6C5F75736172742E6356
:10488000000000002DE9F04705460C4690466FF009
:10489000020A002C73D000BF6748854208D06748E1
:1048A000854205D06648854202D06648854200D1DF
:1048B00004E040F2244164A0FCF794FF00BF00BF75
:1048C0002068B0F5805F01D0206800B904E040F2B4
:1048D00025415DA0FCF786FF00BF00BFA068B0F5D2
:1048E000006F01D0A06800B904E040F2264156A054
:1048F000FCF778FF00BF00BFA069B0F5C06F05D01E
:10490000A069B0F5806F01D0A06900B904E040F261
:1049100027414DA0FCF766FF00BF00BF206918B11A
:104920002069B0F5805F00D104E04FF4856146A0B6
:10493000FCF758FF00BF00BF606918B16069B0F5AF
:10494000005F00D104E040F229413FA0FCF74AFF9C
:1049500000BF00BFE069B0F5004F01D0E06900B9C9
:1049600004E040F22A4138A0FCF73CFF00BF00BF42
:10497000206AB0F1805F01D0206A08B905E058E0F4
:1049800040F22B4130A0FCF72DFF00BF00BF606A52
:1049900018B1606AB0F1004F00D104E040F22C4140
:1049A00029A0FCF71FFF00BF00BFA06AB0F5007F81
:1049B00003D0A06AB0F5807F00D104E040F22D4121
:1049C00021A0FCF70FFF00BF2169A0690843216AFD
:1049D0000843E1690843616A40EA0106A16820686A
:1049E0000843616940EA0107A06AB0F5007F02D17F
:1049F0004FF4007000E000208146EE602F61C5F8A2
:104A00001490206898B900BF6068032800D804E0BB
:104A100040F23B410CA0FCF7E5FE00BF6068A861D6
:104A200042462846E168FFF755FE824601E04FF016
:104A3000000A5046BDE8F08700D0014000D4014094
:104A400000100240001402402E2E5C2E2E5C647278
:104A500069766572735C686333325F6C6C5F647235
:104A6000697665725C7372635C686333325F6C6C29
:104A70005F75736172742E630000000001466FF071
:104A8000020089B100220A604A608A604FF416521F
:104A9000CA6000220A614A618A61CA610A62C20769
:104AA0004A62D20D8A620020704700B585B00320AB
:104AB0000090B02001904FF4706002904FF480306D
:104AC0000390C0030490684600F00CF805B000BDE8
:104AD00040F223100249886043F21020886070473A
:104AE0000090044070B5044600250CB9ED1EA0E00E
:104AF00000BF206840B12068012805D02068022846
:104B000002D02068032800D103E09C214AA0FCF7D2
:104B100069FE00BF00BF6068202814D0606860286C
:104B200011D0606870280ED0606880280BD0606853
:104B3000902808D06068A02805D06068B02802D00E
:104B40006068D02800D103E09D213BA0FCF74AFE1D
:104B500000BF00BFA068B0F5706F37D0A068B0F597
:104B6000807F33D0A068B0F5007F2FD0A068B0F56B
:104B7000407F2BD0A068B0F5806F27D0A068B0F53B
:104B8000A06F23D0A068B0F5C06F1FD0A068B0F5AB
:104B9000E06F1BD0A068B0F5006F17D0A068B0F52B
:104BA000106F13D0A068B0F5206F0FD0A068B0F5DB
:104BB000306F0BD0A068B0F5406F07D0A068B0F59B
:104BC000506F03D0A068B0F5606F00D103E09E2164
:104BD00019A0FCF707FE00BF00BFE06818B1E0684D
:104BE000B0F5803F00D103E09F2113A0FCF7FAFD50
:104BF00000BF00BF206918B12069B0F1004F00D19B
:104C000003E0A0210CA0FCF7EDFD00BFD4E90001FA
:104C10000843A1680843E168084321690843124931
:104C2000084012490968104AD243114008430F490D
:104C30000860284670BD00002E2E5C2E2E5C64722B
:104C400069766572735C686333325F6C6C5F647243
:104C5000697665725C7372635C686333325F6C6C37
:104C60005F7764742E630000F30F018000900440AE
:104C70000FB4054B10B503A9044A029800F04AF896
:104C800010BC5DF814FB0000575000001C80FF1F93
:104C9000002807DB00F01F0201219140024A43096E
:104CA00042F823107047000080E200E000280DDB8E
:104CB00000BF00BF00F01F02012191404209920095
:104CC00002F1E022C2F8001100BF00BF70470000EF
:104CD00010B5002804DB0A07130E054A135406E03A
:104CE0000A07140E034A00F00F031B1FD45410BD13
:104CF00000E400E018ED00E002E008C8121F08C15F
:104D0000002AFAD17047002001E001C1121F002AD9
:104D1000FBD170472DE9FF4F8BB088460546002632
:104D200006E025280BD0DDE90D1290476D1C761C9E
:104D300028780028F5D10FB03046BDE8F08F002468
:104D4000A146A2460122AE4900E0044315F8013F06
:104D5000203B02FA03F00842F7D128782A2810D025
:104D60006FF02F022878A0F13001092915D809EB3E
:104D7000890102EB410144F0020400EB01096D1CC2
:104D8000F0E758F8041B5FEA010903D544F4005426
:104D9000C9F1000944F002046D1C28782E2817D1AF
:104DA00015F8010F44F004042A280ED06FF02F02EA
:104DB0002878A0F1300109290AD80AEB8A0102EB10
:104DC000410100EB010A6D1CF2E758F804AB6D1CC1
:104DD00028786C280FD006DC4C2817D068280DD016
:104DE0006A2814D104E0742810D07A280FD10DE07D
:104DF00044F400140AE044F4801401E044F4401444
:104E00006978814202D104F580146D1C6D1C2878EC
:104E1000692865D006DC00288DD0632827D0642857
:104E200006D15DE06E2808D073282AD0752877D087
:104E3000DDE90D129047761CE0E0C4F30250022831
:104E400009D003280DD0D8F8001004280DD00E602A
:104E500008F10408D2E0D8F80010F217C1E90062A6
:104E6000F6E7D8F800100E80F2E70E70F0E718F8B9
:104E7000041B8DF8001000208DF80100EB46012086
:104E800003E058F804BB4FF0FF3061074FF0000714
:104E900001D40AE07F1C57450DDA8742FADB1BF884
:104EA00007100029F6D106E07F1C8742FCDB1BF8C7
:104EB00007100029F8D1DDE90D23A9EB0700814691
:104EC000214600F0B1F83044C61904E0DDE90D12C6
:104ED0001BF8010B90477F1EF8D22146484688E018
:104EE00058F8040BC4F302514FF00A0B032900D108
:104EF00000B2042900D140B2002802DA40422D213C
:104F000002E0210505D52B218DF82410012104E0B4
:104F100006E0E10710D02021F6E708AF089113E082
:104F200058F8040BC4F302514FF00A0B032900D1C7
:104F300080B2042900D1C0B20021EEE75946FBF748
:104F400047FA303107F8011D0028F7D1ADEB070013
:104F500000F1200B600702D524F4803401E04FF00B
:104F6000010ADA4502DDAAEB0B0000E000208246D0
:104F700000EB0B0108980144A9EB01000A90E00343
:104F800006D4DDE90D2321460A9800F04DF80644C9
:104F90004FF0000908E009A911F80900DDE90D1238
:104FA000904709F10109761C08998945F3DBE00374
:104FB0000CD5DDE90D2321460A9800F035F80644AA
:104FC00004E0DDE90D1230209047761CBAF10001B3
:104FD000AAF1010AF5DC05E0DDE90D1217F8010B75
:104FE0009047761CBBF10001ABF1010BF4DC0A9891
:104FF0002146DDE90D2300F005F806446D1C97E617
:10500000092801002DE9F041044600251E461746F7
:10501000880404D405E039462020B0476D1C641E86
:10502000F9D52846BDE8F0812DE9F0410446002578
:105030001E469046C80301D5302700E0202788048B
:1050400004D505E041463846B0476D1C641EF9D5CD
:105050002846BDE8F08170B504460D46E0B2FCF785
:10506000E3FB08B9204670BD4FF0FF30FBE70000BE
:10507000C720FDF7B3FCFBF73BFC0020FBF718FE55
:105080000120FBF7C5FD0D4A4FF4E1310C48FDF757
:1050900031FDFBF7A1FCFBF7FFFC0AA0FFF7E8FDE1
:1050A000FBF7A6FBFFF701FDC720FDF7DFFC03E0E0
:1050B000FBF742FBFFF70CFDFAE70000050B0000D1
:1050C00000D001405374617274696E672E2E2E2ECB
:1050D0002E0D0A000000400000008000200040006B
:1050E0005D008000BA000001740100022000400051
:1050F0005D008000BA000001740100021C51000034
:105100000880FF1F18000000F84C00003451000018
:105110002080FF1F00520000064D0000000000002C
:10512000000000000000000000000000000000007F
:04513000000000007B
:040000050000028174
:00000001FF
